{
  "contractName": "Storage",
  "abi": [
    {
      "constant": false,
      "inputs": [
        {
          "internalType": "string",
          "name": "_name",
          "type": "string"
        },
        {
          "internalType": "string",
          "name": "_origin",
          "type": "string"
        }
      ],
      "name": "addFood",
      "outputs": [],
      "payable": false,
      "stateMutability": "nonpayable",
      "type": "function"
    },
    {
      "constant": true,
      "inputs": [],
      "name": "getNumber",
      "outputs": [
        {
          "internalType": "uint256",
          "name": "",
          "type": "uint256"
        }
      ],
      "payable": false,
      "stateMutability": "view",
      "type": "function"
    },
    {
      "constant": false,
      "inputs": [
        {
          "internalType": "uint256",
          "name": "_number",
          "type": "uint256"
        },
        {
          "internalType": "string",
          "name": "_name",
          "type": "string"
        },
        {
          "internalType": "string",
          "name": "_origin",
          "type": "string"
        }
      ],
      "name": "modifyFood",
      "outputs": [],
      "payable": false,
      "stateMutability": "nonpayable",
      "type": "function"
    },
    {
      "constant": true,
      "inputs": [
        {
          "internalType": "uint256",
          "name": "_number",
          "type": "uint256"
        }
      ],
      "name": "getFood",
      "outputs": [
        {
          "components": [
            {
              "internalType": "uint256",
              "name": "number",
              "type": "uint256"
            },
            {
              "internalType": "string",
              "name": "name",
              "type": "string"
            },
            {
              "internalType": "string",
              "name": "origin",
              "type": "string"
            }
          ],
          "internalType": "struct Storage.Food[]",
          "name": "",
          "type": "tuple[]"
        }
      ],
      "payable": false,
      "stateMutability": "view",
      "type": "function"
    }
  ],
  "bytecode": "0x608060405234801561001057600080fd5b50610904806100206000396000f3fe608060405234801561001057600080fd5b5060043610610068577c010000000000000000000000000000000000000000000000000000000060003504630b2cd13f811461006d5780630b9cd02c146100825780631e4de87214610095578063f2c9ecd8146100be575b600080fd5b61008061007b3660046106a0565b6100d3565b005b61008061009036600461060a565b6101cc565b6100a86100a336600461067a565b6102d6565b6040516100b5919061083e565b60405180910390f35b6100c66104f0565b6040516100b5919061084f565b6000604051806060016040528087815260200186868080601f016020809104026020016040519081016040528093929190818152602001838380828437600092019190915250505090825250604080516020601f870181900481028201810190925285815291810191908690869081908401838280828437600092018290525093909452505083546001818101808755958352602092839020855160039093020191825582850151805192945061019093918501929101906104f7565b50604082015180516101ac9160028401916020909101906104f7565b505050600095865250506002602052505060409091208054600101905550565b60006040518060600160405280600160008154600101919050819055815260200186868080601f016020809104026020016040519081016040528093929190818152602001838380828437600092019190915250505090825250604080516020601f870181900481028201810190925285815291810191908690869081908401838280828437600092018290525093909452505083546001818101808755958352602092839020855160039093020191825582850151805192945061029793918501929101906104f7565b50604082015180516102b39160028401916020909101906104f7565b505060018054600090815260026020526040902080549091019055505050505050565b606080600260008481526020019081526020016000205460405190808252806020026020018201604052801561032657816020015b610313610575565b81526020019060019003908161030b5790505b5090506000805b6000548110156104e757846000828154811061034557fe5b90600052602060002090600302016000015414156104df576000818154811061036a57fe5b906000526020600020906003020160405180606001604052908160008201548152602001600182018054600181600116156101000203166002900480601f0160208091040260200160405190810160405280929190818152602001828054600181600116156101000203166002900480156104265780601f106103fb57610100808354040283529160200191610426565b820191906000526020600020905b81548152906001019060200180831161040957829003601f168201915b5050509183525050600282810180546040805160206001841615610100026000190190931694909404601f810183900483028501830190915280845293810193908301828280156104b85780601f1061048d576101008083540402835291602001916104b8565b820191906000526020600020905b81548152906001019060200180831161049b57829003601f168201915b5050505050815250508383815181106104cd57fe5b60209081029190910101526001909101905b60010161032d565b50909392505050565b6001545b90565b828054600181600116156101000203166002900490600052602060002090601f016020900481019282601f1061053857805160ff1916838001178555610565565b82800160010185558215610565579182015b8281111561056557825182559160200191906001019061054a565b50610571929150610596565b5090565b60405180606001604052806000815260200160608152602001606081525090565b6104f491905b80821115610571576000815560010161059c565b60008083601f8401126105c257600080fd5b50813567ffffffffffffffff8111156105da57600080fd5b6020830191508360018202830111156105f257600080fd5b9250929050565b8035610604816108aa565b92915050565b6000806000806040858703121561062057600080fd5b843567ffffffffffffffff81111561063757600080fd5b610643878288016105b0565b9450945050602085013567ffffffffffffffff81111561066257600080fd5b61066e878288016105b0565b95989497509550505050565b60006020828403121561068c57600080fd5b600061069884846105f9565b949350505050565b6000806000806000606086880312156106b857600080fd5b60006106c488886105f9565b955050602086013567ffffffffffffffff8111156106e157600080fd5b6106ed888289016105b0565b9450945050604086013567ffffffffffffffff81111561070c57600080fd5b610718888289016105b0565b92509250509295509295909350565b600061073383836107e0565b9392505050565b600061074582610863565b61074f8185610867565b9350836020820285016107618561085d565b8060005b8581101561079b578484038952815161077e8582610727565b94506107898361085d565b60209a909a0199925050600101610765565b5091979650505050505050565b60006107b382610863565b6107bd8185610867565b93506107cd818560208601610870565b6107d6816108a0565b9093019392505050565b805160009060608401906107f4858261082f565b506020830151848203602086015261080c82826107a8565b9150506040830151848203604086015261082682826107a8565b95945050505050565b610838816104f4565b82525050565b60208082528101610733818461073a565b60208101610604828461082f565b60200190565b5190565b90815260200190565b60005b8381101561088b578181015183820152602001610873565b8381111561089a576000848401525b50505050565b601f01601f191690565b6108b3816104f4565b81146108be57600080fd5b5056fea365627a7a723158208b18dff587cdca1106bf79a16adde7800afde37d872f53d3aa10ff52c1b1f41b6c6578706572696d656e74616cf564736f6c63430005100040",
  "source": "pragma solidity >= 0.4.0 ;\r\npragma experimental ABIEncoderV2;\r\n\r\ncontract Storage {\r\n    struct Food {\r\n        uint number;\r\n        string name;\r\n        string origin;\r\n    }\r\n\r\n    Food[] private foods;\r\n    uint private number;\r\n    mapping (uint => uint) chainLengthCount;\r\n\r\n    function addFood(string calldata _name, string calldata _origin) external {\r\n        foods.push(Food(++number, _name, _origin));\r\n        chainLengthCount[number]++;\r\n    }\r\n\r\n    function getNumber() external view returns (uint) {\r\n        return number;\r\n    }\r\n\r\n    function modifyFood(uint _number, string calldata _name, string calldata _origin) external {\r\n        foods.push(Food(_number, _name, _origin));\r\n        chainLengthCount[_number]++;\r\n    }\r\n\r\n    function getFood(uint _number) external view returns (Food[] memory) {\r\n        Food[] memory result = new Food[](chainLengthCount[_number]);\r\n        uint counter = 0;\r\n        for(uint i = 0; i < foods.length; i++) {\r\n            if(foods[i].number == _number) {\r\n                result[counter] = foods[i];\r\n                counter++;\r\n            }\r\n        }\r\n\r\n        return result;\r\n    }\r\n}",
  "sourcePath": "E:/and_flutter/freshfood/contracts/contract.sol",
  "compiler": {
    "name": "solc",
    "version": "0.5.16+commit.9c3226ce.Emscripten.clang"
  },
  "schemaVersion": "3.4.0",
  "updatedAt": "2021-06-03T17:34:41.855Z",
  "networkType": "ethereum",
  "devdoc": {
    "methods": {}
  },
  "userdoc": {
    "methods": {}
  }
}