{
  "contractName": "Storage",
  "abi": [
    {
      "anonymous": false,
      "inputs": [
        {
          "indexed": true,
          "internalType": "address",
          "name": "previousOwner",
          "type": "address"
        },
        {
          "indexed": true,
          "internalType": "address",
          "name": "newOwner",
          "type": "address"
        }
      ],
      "name": "OwnershipTransferred",
      "type": "event"
    },
    {
      "constant": true,
      "inputs": [
        {
          "internalType": "uint256",
          "name": "",
          "type": "uint256"
        }
      ],
      "name": "foods",
      "outputs": [
        {
          "internalType": "uint256",
          "name": "number",
          "type": "uint256"
        },
        {
          "internalType": "string",
          "name": "name",
          "type": "string"
        },
        {
          "internalType": "string",
          "name": "origin",
          "type": "string"
        }
      ],
      "payable": false,
      "stateMutability": "view",
      "type": "function"
    },
    {
      "constant": true,
      "inputs": [],
      "name": "owner",
      "outputs": [
        {
          "internalType": "address",
          "name": "",
          "type": "address"
        }
      ],
      "payable": false,
      "stateMutability": "view",
      "type": "function"
    },
    {
      "constant": false,
      "inputs": [
        {
          "internalType": "address",
          "name": "newOwner",
          "type": "address"
        }
      ],
      "name": "transferOwnership",
      "outputs": [],
      "payable": false,
      "stateMutability": "nonpayable",
      "type": "function"
    },
    {
      "constant": false,
      "inputs": [
        {
          "internalType": "string",
          "name": "_name",
          "type": "string"
        },
        {
          "internalType": "string",
          "name": "_origin",
          "type": "string"
        }
      ],
      "name": "addFood",
      "outputs": [
        {
          "internalType": "uint256",
          "name": "",
          "type": "uint256"
        }
      ],
      "payable": false,
      "stateMutability": "nonpayable",
      "type": "function"
    },
    {
      "constant": false,
      "inputs": [
        {
          "internalType": "uint256",
          "name": "_number",
          "type": "uint256"
        },
        {
          "internalType": "string",
          "name": "_name",
          "type": "string"
        },
        {
          "internalType": "string",
          "name": "_origin",
          "type": "string"
        }
      ],
      "name": "modifyFood",
      "outputs": [],
      "payable": false,
      "stateMutability": "nonpayable",
      "type": "function"
    },
    {
      "constant": true,
      "inputs": [
        {
          "internalType": "uint256",
          "name": "_number",
          "type": "uint256"
        }
      ],
      "name": "getFood",
      "outputs": [
        {
          "components": [
            {
              "internalType": "uint256",
              "name": "number",
              "type": "uint256"
            },
            {
              "internalType": "string",
              "name": "name",
              "type": "string"
            },
            {
              "internalType": "string",
              "name": "origin",
              "type": "string"
            }
          ],
          "internalType": "struct Storage.Food[]",
          "name": "",
          "type": "tuple[]"
        }
      ],
      "payable": false,
      "stateMutability": "view",
      "type": "function"
    }
  ],
  "bytecode": "0x608060405260008054600160a060020a03191633179055610c36806100256000396000f3fe608060405234801561001057600080fd5b506004361061007e577c010000000000000000000000000000000000000000000000000000000060003504630b2cd13f81146100835780630b9cd02c1461009857806314d3f10e146100c15780631e4de872146100e35780638da5cb5b14610103578063f2fde38b14610118575b600080fd5b610096610091366004610960565b61012b565b005b6100ab6100a63660046108d2565b610224565b6040516100b89190610b26565b60405180910390f35b6100d46100cf366004610942565b610334565b6040516100b893929190610b34565b6100f66100f1366004610942565b61048f565b6040516100b89190610b15565b61010b6106a9565b6040516100b89190610b07565b6100966101263660046108ac565b6106c5565b6001604051806060016040528087815260200186868080601f016020809104026020016040519081016040528093929190818152602001838380828437600092019190915250505090825250604080516020601f87018190048102820181019092528581529181019190869086908190840183828082843760009201829052509390945250508354600181810180875595835260209283902085516003909302019182558285015180519294506101e8939185019291019061078b565b506040820151805161020491600284019160209091019061078b565b505050600095865250506003602052505060409091208054600101905550565b600060016040518060600160405280600260008154600101919050819055815260200187878080601f016020809104026020016040519081016040528093929190818152602001838380828437600092019190915250505090825250604080516020601f88018190048102820181019092528681529181019190879087908190840183828082843760009201829052509390945250508354600181810180875595835260209283902085516003909302019182558285015180519294506102f1939185019291019061078b565b506040820151805161030d91600284019160209091019061078b565b50506002805460009081526003602052604090208054600101905554979650505050505050565b6001818154811061034157fe5b9060005260206000209060030201600091509050806000015490806001018054600181600116156101000203166002900480601f0160208091040260200160405190810160405280929190818152602001828054600181600116156101000203166002900480156103f35780601f106103c8576101008083540402835291602001916103f3565b820191906000526020600020905b8154815290600101906020018083116103d657829003601f168201915b50505060028085018054604080516020601f60001961010060018716150201909416959095049283018590048502810185019091528181529596959450909250908301828280156104855780601f1061045a57610100808354040283529160200191610485565b820191906000526020600020905b81548152906001019060200180831161046857829003601f168201915b5050505050905083565b60608060036000848152602001908152602001600020546040519080825280602002602001820160405280156104df57816020015b6104cc610809565b8152602001906001900390816104c45790505b5090506000805b6001548110156106a05784600182815481106104fe57fe5b9060005260206000209060030201600001541415610698576001818154811061052357fe5b906000526020600020906003020160405180606001604052908160008201548152602001600182018054600181600116156101000203166002900480601f0160208091040260200160405190810160405280929190818152602001828054600181600116156101000203166002900480156105df5780601f106105b4576101008083540402835291602001916105df565b820191906000526020600020905b8154815290600101906020018083116105c257829003601f168201915b5050509183525050600282810180546040805160206001841615610100026000190190931694909404601f810183900483028501830190915280845293810193908301828280156106715780601f1061064657610100808354040283529160200191610671565b820191906000526020600020905b81548152906001019060200180831161065457829003601f168201915b50505050508152505083838151811061068657fe5b60209081029190910101526001909101905b6001016104e6565b50909392505050565b60005473ffffffffffffffffffffffffffffffffffffffff1681565b60005473ffffffffffffffffffffffffffffffffffffffff1633146106e957600080fd5b73ffffffffffffffffffffffffffffffffffffffff811661070957600080fd5b6000805460405173ffffffffffffffffffffffffffffffffffffffff808516939216917f8be0079c531659141344cd1fd0a4f28419497f9722a3daafe3b4186f6b6457e091a36000805473ffffffffffffffffffffffffffffffffffffffff191673ffffffffffffffffffffffffffffffffffffffff92909216919091179055565b828054600181600116156101000203166002900490600052602060002090601f016020900481019282601f106107cc57805160ff19168380011785556107f9565b828001600101855582156107f9579182015b828111156107f95782518255916020019190600101906107de565b5061080592915061082a565b5090565b60405180606001604052806000815260200160608152602001606081525090565b61084491905b808211156108055760008155600101610830565b90565b803561085281610bd3565b92915050565b60008083601f84011261086a57600080fd5b50813567ffffffffffffffff81111561088257600080fd5b60208301915083600182028301111561089a57600080fd5b9250929050565b803561085281610bea565b6000602082840312156108be57600080fd5b60006108ca8484610847565b949350505050565b600080600080604085870312156108e857600080fd5b843567ffffffffffffffff8111156108ff57600080fd5b61090b87828801610858565b9450945050602085013567ffffffffffffffff81111561092a57600080fd5b61093687828801610858565b95989497509550505050565b60006020828403121561095457600080fd5b60006108ca84846108a1565b60008060008060006060868803121561097857600080fd5b600061098488886108a1565b955050602086013567ffffffffffffffff8111156109a157600080fd5b6109ad88828901610858565b9450945050604086013567ffffffffffffffff8111156109cc57600080fd5b6109d888828901610858565b92509250509295509295909350565b60006109f38383610aaf565b9392505050565b610a0381610b7b565b82525050565b6000610a1482610b6e565b610a1e8185610b72565b935083602082028501610a3085610b68565b8060005b85811015610a6a5784840389528151610a4d85826109e7565b9450610a5883610b68565b60209a909a0199925050600101610a34565b5091979650505050505050565b6000610a8282610b6e565b610a8c8185610b72565b9350610a9c818560208601610b99565b610aa581610bc9565b9093019392505050565b80516000906060840190610ac38582610afe565b5060208301518482036020860152610adb8282610a77565b91505060408301518482036040860152610af58282610a77565b95945050505050565b610a0381610844565b6020810161085282846109fa565b602080825281016109f38184610a09565b602081016108528284610afe565b60608101610b428286610afe565b8181036020830152610b548185610a77565b90508181036040830152610af58184610a77565b60200190565b5190565b90815260200190565b600073ffffffffffffffffffffffffffffffffffffffff8216610852565b60005b83811015610bb4578181015183820152602001610b9c565b83811115610bc3576000848401525b50505050565b601f01601f191690565b610bdc81610b7b565b8114610be757600080fd5b50565b610bdc8161084456fea365627a7a723158202940629379e30e18969dc79b7766bfb4eb280d376e9120929f3d31d2aaa3083a6c6578706572696d656e74616cf564736f6c63430005100040",
  "source": "pragma solidity >= 0.4.0 ;\r\npragma experimental ABIEncoderV2;\r\n\r\nimport \"./ownable.sol\";\r\n\r\ncontract Storage is Ownable {\r\n    struct Food {\r\n        uint number;\r\n        string name;\r\n        string origin;\r\n    }\r\n\r\n    Food[] public foods;\r\n    uint private number;\r\n    mapping (uint => uint) chainLengthCount;\r\n\r\n    function addFood(string calldata _name, string calldata _origin) external returns (uint) {\r\n        foods.push(Food(++number, _name, _origin));\r\n        chainLengthCount[number]++;\r\n\r\n        return number;\r\n    }\r\n\r\n    function modifyFood(uint _number, string calldata _name, string calldata _origin) external {\r\n        foods.push(Food(_number, _name, _origin));\r\n        chainLengthCount[_number]++;\r\n\r\n    }\r\n\r\n    function getFood(uint _number) external view returns (Food[] memory) {\r\n        Food[] memory result = new Food[](chainLengthCount[_number]);\r\n        uint counter = 0;\r\n        for(uint i = 0; i < foods.length; i++) {\r\n            if(foods[i].number == _number) {\r\n                result[counter] = foods[i];\r\n                counter++;\r\n            }\r\n        }\r\n\r\n        return result;\r\n    }\r\n}",
  "sourcePath": "E:/and_flutter/freshfood/contracts/contract.sol",
  "compiler": {
    "name": "solc",
    "version": "0.5.16+commit.9c3226ce.Emscripten.clang"
  },
  "schemaVersion": "3.4.0",
  "updatedAt": "2021-06-02T18:28:52.887Z",
  "networkType": "ethereum",
  "devdoc": {
    "methods": {
      "transferOwnership(address)": {
        "details": "Allows the current owner to transfer control of the contract to a newOwner.",
        "params": {
          "newOwner": "The address to transfer ownership to."
        }
      }
    }
  },
  "userdoc": {
    "methods": {}
  }
}