{
  "contractName": "Storage",
  "abi": [
    {
      "constant": true,
      "inputs": [
        {
          "internalType": "uint256",
          "name": "",
          "type": "uint256"
        }
      ],
      "name": "foods",
      "outputs": [
        {
          "internalType": "uint256",
          "name": "number",
          "type": "uint256"
        },
        {
          "internalType": "string",
          "name": "name",
          "type": "string"
        },
        {
          "internalType": "string",
          "name": "origin",
          "type": "string"
        }
      ],
      "payable": false,
      "stateMutability": "view",
      "type": "function"
    },
    {
      "constant": false,
      "inputs": [
        {
          "internalType": "string",
          "name": "_name",
          "type": "string"
        },
        {
          "internalType": "string",
          "name": "_origin",
          "type": "string"
        }
      ],
      "name": "addFood",
      "outputs": [],
      "payable": false,
      "stateMutability": "nonpayable",
      "type": "function"
    },
    {
      "constant": true,
      "inputs": [],
      "name": "getNumber",
      "outputs": [
        {
          "internalType": "uint256",
          "name": "",
          "type": "uint256"
        }
      ],
      "payable": false,
      "stateMutability": "view",
      "type": "function"
    },
    {
      "constant": false,
      "inputs": [
        {
          "internalType": "uint256",
          "name": "_number",
          "type": "uint256"
        },
        {
          "internalType": "string",
          "name": "_name",
          "type": "string"
        },
        {
          "internalType": "string",
          "name": "_origin",
          "type": "string"
        }
      ],
      "name": "modifyFood",
      "outputs": [],
      "payable": false,
      "stateMutability": "nonpayable",
      "type": "function"
    },
    {
      "constant": true,
      "inputs": [
        {
          "internalType": "uint256",
          "name": "_number",
          "type": "uint256"
        }
      ],
      "name": "getFood",
      "outputs": [
        {
          "components": [
            {
              "internalType": "uint256",
              "name": "number",
              "type": "uint256"
            },
            {
              "internalType": "string",
              "name": "name",
              "type": "string"
            },
            {
              "internalType": "string",
              "name": "origin",
              "type": "string"
            }
          ],
          "internalType": "struct Storage.Food[]",
          "name": "",
          "type": "tuple[]"
        }
      ],
      "payable": false,
      "stateMutability": "view",
      "type": "function"
    }
  ],
  "bytecode": "0x608060405234801561001057600080fd5b50610ac0806100206000396000f3fe608060405234801561001057600080fd5b5060043610610073577c010000000000000000000000000000000000000000000000000000000060003504630b2cd13f81146100785780630b9cd02c1461008d57806314d3f10e146100a05780631e4de872146100cb578063f2c9ecd8146100eb575b600080fd5b61008b610086366004610828565b610100565b005b61008b61009b366004610792565b6101f9565b6100b36100ae366004610802565b610303565b6040516100c2939291906109e5565b60405180910390f35b6100de6100d9366004610802565b61045e565b6040516100c291906109c6565b6100f3610678565b6040516100c291906109d7565b6000604051806060016040528087815260200186868080601f016020809104026020016040519081016040528093929190818152602001838380828437600092019190915250505090825250604080516020601f87018190048102820181019092528581529181019190869086908190840183828082843760009201829052509390945250508354600181810180875595835260209283902085516003909302019182558285015180519294506101bd939185019291019061067f565b50604082015180516101d991600284019160209091019061067f565b505050600095865250506002602052505060409091208054600101905550565b60006040518060600160405280600160008154600101919050819055815260200186868080601f016020809104026020016040519081016040528093929190818152602001838380828437600092019190915250505090825250604080516020601f87018190048102820181019092528581529181019190869086908190840183828082843760009201829052509390945250508354600181810180875595835260209283902085516003909302019182558285015180519294506102c4939185019291019061067f565b50604082015180516102e091600284019160209091019061067f565b505060018054600090815260026020526040902080549091019055505050505050565b6000818154811061031057fe5b9060005260206000209060030201600091509050806000015490806001018054600181600116156101000203166002900480601f0160208091040260200160405190810160405280929190818152602001828054600181600116156101000203166002900480156103c25780601f10610397576101008083540402835291602001916103c2565b820191906000526020600020905b8154815290600101906020018083116103a557829003601f168201915b50505060028085018054604080516020601f60001961010060018716150201909416959095049283018590048502810185019091528181529596959450909250908301828280156104545780601f1061042957610100808354040283529160200191610454565b820191906000526020600020905b81548152906001019060200180831161043757829003601f168201915b5050505050905083565b60608060026000848152602001908152602001600020546040519080825280602002602001820160405280156104ae57816020015b61049b6106fd565b8152602001906001900390816104935790505b5090506000805b60005481101561066f5784600082815481106104cd57fe5b906000526020600020906003020160000154141561066757600081815481106104f257fe5b906000526020600020906003020160405180606001604052908160008201548152602001600182018054600181600116156101000203166002900480601f0160208091040260200160405190810160405280929190818152602001828054600181600116156101000203166002900480156105ae5780601f10610583576101008083540402835291602001916105ae565b820191906000526020600020905b81548152906001019060200180831161059157829003601f168201915b5050509183525050600282810180546040805160206001841615610100026000190190931694909404601f810183900483028501830190915280845293810193908301828280156106405780601f1061061557610100808354040283529160200191610640565b820191906000526020600020905b81548152906001019060200180831161062357829003601f168201915b50505050508152505083838151811061065557fe5b60209081029190910101526001909101905b6001016104b5565b50909392505050565b6001545b90565b828054600181600116156101000203166002900490600052602060002090601f016020900481019282601f106106c057805160ff19168380011785556106ed565b828001600101855582156106ed579182015b828111156106ed5782518255916020019190600101906106d2565b506106f992915061071e565b5090565b60405180606001604052806000815260200160608152602001606081525090565b61067c91905b808211156106f95760008155600101610724565b60008083601f84011261074a57600080fd5b50813567ffffffffffffffff81111561076257600080fd5b60208301915083600182028301111561077a57600080fd5b9250929050565b803561078c81610a66565b92915050565b600080600080604085870312156107a857600080fd5b843567ffffffffffffffff8111156107bf57600080fd5b6107cb87828801610738565b9450945050602085013567ffffffffffffffff8111156107ea57600080fd5b6107f687828801610738565b95989497509550505050565b60006020828403121561081457600080fd5b60006108208484610781565b949350505050565b60008060008060006060868803121561084057600080fd5b600061084c8888610781565b955050602086013567ffffffffffffffff81111561086957600080fd5b61087588828901610738565b9450945050604086013567ffffffffffffffff81111561089457600080fd5b6108a088828901610738565b92509250509295509295909350565b60006108bb8383610968565b9392505050565b60006108cd82610a1f565b6108d78185610a23565b9350836020820285016108e985610a19565b8060005b85811015610923578484038952815161090685826108af565b945061091183610a19565b60209a909a01999250506001016108ed565b5091979650505050505050565b600061093b82610a1f565b6109458185610a23565b9350610955818560208601610a2c565b61095e81610a5c565b9093019392505050565b8051600090606084019061097c85826109b7565b50602083015184820360208601526109948282610930565b915050604083015184820360408601526109ae8282610930565b95945050505050565b6109c08161067c565b82525050565b602080825281016108bb81846108c2565b6020810161078c82846109b7565b606081016109f382866109b7565b8181036020830152610a058185610930565b905081810360408301526109ae8184610930565b60200190565b5190565b90815260200190565b60005b83811015610a47578181015183820152602001610a2f565b83811115610a56576000848401525b50505050565b601f01601f191690565b610a6f8161067c565b8114610a7a57600080fd5b5056fea365627a7a72315820f3af793d4ecebba8f1b8843febd2674407f71a96202d5ab11a753aec69182bf96c6578706572696d656e74616cf564736f6c63430005100040",
  "source": "pragma solidity >= 0.4.0 ;\r\npragma experimental ABIEncoderV2;\r\n\r\ncontract Storage {\r\n    struct Food {\r\n        uint number;\r\n        string name;\r\n        string origin;\r\n    }\r\n\r\n    Food[] public foods;\r\n    uint private number;\r\n    mapping (uint => uint) chainLengthCount;\r\n\r\n    function addFood(string calldata _name, string calldata _origin) external {\r\n        foods.push(Food(++number, _name, _origin));\r\n        chainLengthCount[number]++;\r\n    }\r\n\r\n    function getNumber() external view returns (uint) {\r\n        return number;\r\n    }\r\n\r\n    function modifyFood(uint _number, string calldata _name, string calldata _origin) external {\r\n        foods.push(Food(_number, _name, _origin));\r\n        chainLengthCount[_number]++;\r\n    }\r\n\r\n    function getFood(uint _number) external view returns (Food[] memory) {\r\n        Food[] memory result = new Food[](chainLengthCount[_number]);\r\n        uint counter = 0;\r\n        for(uint i = 0; i < foods.length; i++) {\r\n            if(foods[i].number == _number) {\r\n                result[counter] = foods[i];\r\n                counter++;\r\n            }\r\n        }\r\n\r\n        return result;\r\n    }\r\n}",
  "sourcePath": "C:/Users/aaa/Desktop/Fresh-Food-App/freshfood/contracts/contract.sol",
  "compiler": {
    "name": "solc",
    "version": "0.5.16+commit.9c3226ce.Emscripten.clang"
  },
  "schemaVersion": "3.4.1",
  "updatedAt": "2021-06-02T20:05:43.265Z",
  "devdoc": {
    "methods": {}
  },
  "userdoc": {
    "methods": {}
  }
}